{
  "contractName": "Retrography",
  "abi": [
    {
      "inputs": [],
      "stateMutability": "nonpayable",
      "type": "constructor"
    },
    {
      "anonymous": false,
      "inputs": [
        {
          "indexed": true,
          "internalType": "address",
          "name": "owner",
          "type": "address"
        },
        {
          "indexed": true,
          "internalType": "address",
          "name": "approved",
          "type": "address"
        },
        {
          "indexed": true,
          "internalType": "uint256",
          "name": "tokenId",
          "type": "uint256"
        }
      ],
      "name": "Approval",
      "type": "event"
    },
    {
      "anonymous": false,
      "inputs": [
        {
          "indexed": true,
          "internalType": "address",
          "name": "owner",
          "type": "address"
        },
        {
          "indexed": true,
          "internalType": "address",
          "name": "operator",
          "type": "address"
        },
        {
          "indexed": false,
          "internalType": "bool",
          "name": "approved",
          "type": "bool"
        }
      ],
      "name": "ApprovalForAll",
      "type": "event"
    },
    {
      "anonymous": false,
      "inputs": [
        {
          "indexed": true,
          "internalType": "address",
          "name": "previousOwner",
          "type": "address"
        },
        {
          "indexed": true,
          "internalType": "address",
          "name": "newOwner",
          "type": "address"
        }
      ],
      "name": "OwnershipTransferred",
      "type": "event"
    },
    {
      "anonymous": false,
      "inputs": [
        {
          "indexed": true,
          "internalType": "address",
          "name": "from",
          "type": "address"
        },
        {
          "indexed": true,
          "internalType": "address",
          "name": "to",
          "type": "address"
        },
        {
          "indexed": true,
          "internalType": "uint256",
          "name": "tokenId",
          "type": "uint256"
        }
      ],
      "name": "Transfer",
      "type": "event"
    },
    {
      "inputs": [],
      "name": "MAX_TOKENS",
      "outputs": [
        {
          "internalType": "uint256",
          "name": "",
          "type": "uint256"
        }
      ],
      "stateMutability": "view",
      "type": "function"
    },
    {
      "inputs": [],
      "name": "PROVENANCE",
      "outputs": [
        {
          "internalType": "string",
          "name": "",
          "type": "string"
        }
      ],
      "stateMutability": "view",
      "type": "function"
    },
    {
      "inputs": [
        {
          "internalType": "address",
          "name": "to",
          "type": "address"
        },
        {
          "internalType": "uint256",
          "name": "tokenId",
          "type": "uint256"
        }
      ],
      "name": "approve",
      "outputs": [],
      "stateMutability": "nonpayable",
      "type": "function"
    },
    {
      "inputs": [
        {
          "internalType": "address",
          "name": "owner",
          "type": "address"
        }
      ],
      "name": "balanceOf",
      "outputs": [
        {
          "internalType": "uint256",
          "name": "",
          "type": "uint256"
        }
      ],
      "stateMutability": "view",
      "type": "function"
    },
    {
      "inputs": [
        {
          "internalType": "uint256",
          "name": "tokenId",
          "type": "uint256"
        }
      ],
      "name": "getApproved",
      "outputs": [
        {
          "internalType": "address",
          "name": "",
          "type": "address"
        }
      ],
      "stateMutability": "view",
      "type": "function"
    },
    {
      "inputs": [
        {
          "internalType": "address",
          "name": "owner",
          "type": "address"
        },
        {
          "internalType": "address",
          "name": "operator",
          "type": "address"
        }
      ],
      "name": "isApprovedForAll",
      "outputs": [
        {
          "internalType": "bool",
          "name": "",
          "type": "bool"
        }
      ],
      "stateMutability": "view",
      "type": "function"
    },
    {
      "inputs": [],
      "name": "maxTokenPurchase",
      "outputs": [
        {
          "internalType": "uint256",
          "name": "",
          "type": "uint256"
        }
      ],
      "stateMutability": "view",
      "type": "function"
    },
    {
      "inputs": [],
      "name": "name",
      "outputs": [
        {
          "internalType": "string",
          "name": "",
          "type": "string"
        }
      ],
      "stateMutability": "view",
      "type": "function"
    },
    {
      "inputs": [],
      "name": "owner",
      "outputs": [
        {
          "internalType": "address",
          "name": "",
          "type": "address"
        }
      ],
      "stateMutability": "view",
      "type": "function"
    },
    {
      "inputs": [
        {
          "internalType": "uint256",
          "name": "tokenId",
          "type": "uint256"
        }
      ],
      "name": "ownerOf",
      "outputs": [
        {
          "internalType": "address",
          "name": "",
          "type": "address"
        }
      ],
      "stateMutability": "view",
      "type": "function"
    },
    {
      "inputs": [],
      "name": "renounceOwnership",
      "outputs": [],
      "stateMutability": "nonpayable",
      "type": "function"
    },
    {
      "inputs": [
        {
          "internalType": "address",
          "name": "from",
          "type": "address"
        },
        {
          "internalType": "address",
          "name": "to",
          "type": "address"
        },
        {
          "internalType": "uint256",
          "name": "tokenId",
          "type": "uint256"
        }
      ],
      "name": "safeTransferFrom",
      "outputs": [],
      "stateMutability": "nonpayable",
      "type": "function"
    },
    {
      "inputs": [
        {
          "internalType": "address",
          "name": "from",
          "type": "address"
        },
        {
          "internalType": "address",
          "name": "to",
          "type": "address"
        },
        {
          "internalType": "uint256",
          "name": "tokenId",
          "type": "uint256"
        },
        {
          "internalType": "bytes",
          "name": "_data",
          "type": "bytes"
        }
      ],
      "name": "safeTransferFrom",
      "outputs": [],
      "stateMutability": "nonpayable",
      "type": "function"
    },
    {
      "inputs": [],
      "name": "saleIsActive",
      "outputs": [
        {
          "internalType": "bool",
          "name": "",
          "type": "bool"
        }
      ],
      "stateMutability": "view",
      "type": "function"
    },
    {
      "inputs": [
        {
          "internalType": "address",
          "name": "operator",
          "type": "address"
        },
        {
          "internalType": "bool",
          "name": "approved",
          "type": "bool"
        }
      ],
      "name": "setApprovalForAll",
      "outputs": [],
      "stateMutability": "nonpayable",
      "type": "function"
    },
    {
      "inputs": [],
      "name": "symbol",
      "outputs": [
        {
          "internalType": "string",
          "name": "",
          "type": "string"
        }
      ],
      "stateMutability": "view",
      "type": "function"
    },
    {
      "inputs": [
        {
          "internalType": "uint256",
          "name": "index",
          "type": "uint256"
        }
      ],
      "name": "tokenByIndex",
      "outputs": [
        {
          "internalType": "uint256",
          "name": "",
          "type": "uint256"
        }
      ],
      "stateMutability": "view",
      "type": "function"
    },
    {
      "inputs": [
        {
          "internalType": "address",
          "name": "owner",
          "type": "address"
        },
        {
          "internalType": "uint256",
          "name": "index",
          "type": "uint256"
        }
      ],
      "name": "tokenOfOwnerByIndex",
      "outputs": [
        {
          "internalType": "uint256",
          "name": "",
          "type": "uint256"
        }
      ],
      "stateMutability": "view",
      "type": "function"
    },
    {
      "inputs": [],
      "name": "tokenPrice",
      "outputs": [
        {
          "internalType": "uint256",
          "name": "",
          "type": "uint256"
        }
      ],
      "stateMutability": "view",
      "type": "function"
    },
    {
      "inputs": [
        {
          "internalType": "uint256",
          "name": "tokenId",
          "type": "uint256"
        }
      ],
      "name": "tokenURI",
      "outputs": [
        {
          "internalType": "string",
          "name": "",
          "type": "string"
        }
      ],
      "stateMutability": "view",
      "type": "function"
    },
    {
      "inputs": [],
      "name": "totalSupply",
      "outputs": [
        {
          "internalType": "uint256",
          "name": "",
          "type": "uint256"
        }
      ],
      "stateMutability": "view",
      "type": "function"
    },
    {
      "inputs": [
        {
          "internalType": "address",
          "name": "from",
          "type": "address"
        },
        {
          "internalType": "address",
          "name": "to",
          "type": "address"
        },
        {
          "internalType": "uint256",
          "name": "tokenId",
          "type": "uint256"
        }
      ],
      "name": "transferFrom",
      "outputs": [],
      "stateMutability": "nonpayable",
      "type": "function"
    },
    {
      "inputs": [
        {
          "internalType": "address",
          "name": "newOwner",
          "type": "address"
        }
      ],
      "name": "transferOwnership",
      "outputs": [],
      "stateMutability": "nonpayable",
      "type": "function"
    },
    {
      "inputs": [
        {
          "internalType": "bytes4",
          "name": "interfaceId",
          "type": "bytes4"
        }
      ],
      "name": "supportsInterface",
      "outputs": [
        {
          "internalType": "bool",
          "name": "",
          "type": "bool"
        }
      ],
      "stateMutability": "view",
      "type": "function"
    },
    {
      "inputs": [
        {
          "internalType": "string",
          "name": "baseURI_",
          "type": "string"
        }
      ],
      "name": "setBaseURI",
      "outputs": [],
      "stateMutability": "nonpayable",
      "type": "function"
    },
    {
      "inputs": [
        {
          "internalType": "string",
          "name": "provenance",
          "type": "string"
        }
      ],
      "name": "setProvenance",
      "outputs": [],
      "stateMutability": "nonpayable",
      "type": "function"
    },
    {
      "inputs": [],
      "name": "reserveTokens",
      "outputs": [],
      "stateMutability": "nonpayable",
      "type": "function"
    },
    {
      "inputs": [],
      "name": "flipSaleState",
      "outputs": [],
      "stateMutability": "nonpayable",
      "type": "function"
    },
    {
      "inputs": [
        {
          "internalType": "uint256",
          "name": "_fee",
          "type": "uint256"
        }
      ],
      "name": "settokenPrice",
      "outputs": [],
      "stateMutability": "nonpayable",
      "type": "function"
    },
    {
      "inputs": [],
      "name": "gettokenPrice",
      "outputs": [
        {
          "internalType": "uint256",
          "name": "",
          "type": "uint256"
        }
      ],
      "stateMutability": "view",
      "type": "function"
    },
    {
      "inputs": [
        {
          "internalType": "uint256",
          "name": "numberOfTokens",
          "type": "uint256"
        }
      ],
      "name": "mintRetro",
      "outputs": [],
      "stateMutability": "payable",
      "type": "function"
    },
    {
      "inputs": [],
      "name": "withdraw",
      "outputs": [],
      "stateMutability": "nonpayable",
      "type": "function"
    }
  ],
  "bytecode": "0x608060405260405180602001604052806000815250600b90805190602001906200002b929190620001fa565b5066f8b0a10e470000600c55612710600d556000600e60006101000a81548160ff0219169083151502179055503480156200006557600080fd5b506040518060400160405280600b81526020017f526574726f6772617068790000000000000000000000000000000000000000008152506040518060400160405280600581526020017f524554524f0000000000000000000000000000000000000000000000000000008152508160009080519060200190620000ea929190620001fa565b50806001908051906020019062000103929190620001fa565b505050620001266200011a6200012c60201b60201c565b6200013460201b60201c565b6200030f565b600033905090565b6000600a60009054906101000a900473ffffffffffffffffffffffffffffffffffffffff16905081600a60006101000a81548173ffffffffffffffffffffffffffffffffffffffff021916908373ffffffffffffffffffffffffffffffffffffffff1602179055508173ffffffffffffffffffffffffffffffffffffffff168173ffffffffffffffffffffffffffffffffffffffff167f8be0079c531659141344cd1fd0a4f28419497f9722a3daafe3b4186f6b6457e060405160405180910390a35050565b8280546200020890620002aa565b90600052602060002090601f0160209004810192826200022c576000855562000278565b82601f106200024757805160ff191683800117855562000278565b8280016001018555821562000278579182015b82811115620002775782518255916020019190600101906200025a565b5b5090506200028791906200028b565b5090565b5b80821115620002a65760008160009055506001016200028c565b5090565b60006002820490506001821680620002c357607f821691505b60208210811415620002da57620002d9620002e0565b5b50919050565b7f4e487b7100000000000000000000000000000000000000000000000000000000600052602260045260246000fd5b613fb7806200031f6000396000f3fe6080604052600436106101e35760003560e01c80636352211e11610102578063a22cb46511610095578063eb8d244411610064578063eb8d2444146106bf578063f2fde38b146106ea578063f47c84c514610713578063ffe630b51461073e576101e3565b8063a22cb465146105f3578063b88d4fde1461061c578063c87b56dd14610645578063e985e9c514610682576101e3565b80637ff9b596116100d15780637ff9b596146105475780638da5cb5b1461057257806390349c031461059d57806395d89b41146105c8576101e3565b80636352211e1461048b5780636373a6b1146104c857806370a08231146104f3578063715018a614610530576101e3565b80632f745c591161017a57806344e843eb1161014957806344e843eb146103e05780634f6ccce714610409578063556d5b071461044657806355f804b314610462576101e3565b80632f745c591461034c57806334918dfd146103895780633ccfd60b146103a057806342842e0e146103b7576101e3565b806309aa3dcf116101b657806309aa3dcf146102b657806318160ddd146102e157806323b872dd1461030c57806327ac36c414610335576101e3565b806301ffc9a7146101e857806306fdde0314610225578063081812fc14610250578063095ea7b31461028d575b600080fd5b3480156101f457600080fd5b5061020f600480360381019061020a9190612dfe565b610767565b60405161021c91906137f5565b60405180910390f35b34801561023157600080fd5b5061023a610779565b6040516102479190613810565b60405180910390f35b34801561025c57600080fd5b5061027760048036038101906102729190612e91565b61080b565b604051610284919061378e565b60405180910390f35b34801561029957600080fd5b506102b460048036038101906102af9190612dc2565b610890565b005b3480156102c257600080fd5b506102cb6109a8565b6040516102d89190613af2565b60405180910390f35b3480156102ed57600080fd5b506102f66109ad565b6040516103039190613af2565b60405180910390f35b34801561031857600080fd5b50610333600480360381019061032e9190612cbc565b6109ba565b005b34801561034157600080fd5b5061034a610a1a565b005b34801561035857600080fd5b50610373600480360381019061036e9190612dc2565b610ada565b6040516103809190613af2565b60405180910390f35b34801561039557600080fd5b5061039e610b7f565b005b3480156103ac57600080fd5b506103b5610c27565b005b3480156103c357600080fd5b506103de60048036038101906103d99190612cbc565b610cf2565b005b3480156103ec57600080fd5b5061040760048036038101906104029190612e91565b610d12565b005b34801561041557600080fd5b50610430600480360381019061042b9190612e91565b610d98565b60405161043d9190613af2565b60405180910390f35b610460600480360381019061045b9190612e91565b610e2f565b005b34801561046e57600080fd5b5061048960048036038101906104849190612e50565b610fb4565b005b34801561049757600080fd5b506104b260048036038101906104ad9190612e91565b61104a565b6040516104bf919061378e565b60405180910390f35b3480156104d457600080fd5b506104dd6110fc565b6040516104ea9190613810565b60405180910390f35b3480156104ff57600080fd5b5061051a60048036038101906105159190612c57565b61118a565b6040516105279190613af2565b60405180910390f35b34801561053c57600080fd5b50610545611242565b005b34801561055357600080fd5b5061055c6112ca565b6040516105699190613af2565b60405180910390f35b34801561057e57600080fd5b506105876112d0565b604051610594919061378e565b60405180910390f35b3480156105a957600080fd5b506105b26112fa565b6040516105bf9190613af2565b60405180910390f35b3480156105d457600080fd5b506105dd611304565b6040516105ea9190613810565b60405180910390f35b3480156105ff57600080fd5b5061061a60048036038101906106159190612d86565b611396565b005b34801561062857600080fd5b50610643600480360381019061063e9190612d0b565b611517565b005b34801561065157600080fd5b5061066c60048036038101906106679190612e91565b611579565b6040516106799190613810565b60405180910390f35b34801561068e57600080fd5b506106a960048036038101906106a49190612c80565b611620565b6040516106b691906137f5565b60405180910390f35b3480156106cb57600080fd5b506106d46116b4565b6040516106e191906137f5565b60405180910390f35b3480156106f657600080fd5b50610711600480360381019061070c9190612c57565b6116c7565b005b34801561071f57600080fd5b506107286117bf565b6040516107359190613af2565b60405180910390f35b34801561074a57600080fd5b5061076560048036038101906107609190612e50565b6117c5565b005b60006107728261185b565b9050919050565b60606000805461078890613dac565b80601f01602080910402602001604051908101604052809291908181526020018280546107b490613dac565b80156108015780601f106107d657610100808354040283529160200191610801565b820191906000526020600020905b8154815290600101906020018083116107e457829003601f168201915b5050505050905090565b6000610816826118d5565b610855576040517f08c379a000000000000000000000000000000000000000000000000000000000815260040161084c906139f2565b60405180910390fd5b6004600083815260200190815260200160002060009054906101000a900473ffffffffffffffffffffffffffffffffffffffff169050919050565b600061089b8261104a565b90508073ffffffffffffffffffffffffffffffffffffffff168373ffffffffffffffffffffffffffffffffffffffff16141561090c576040517f08c379a000000000000000000000000000000000000000000000000000000000815260040161090390613a72565b60405180910390fd5b8073ffffffffffffffffffffffffffffffffffffffff1661092b611941565b73ffffffffffffffffffffffffffffffffffffffff16148061095a575061095981610954611941565b611620565b5b610999576040517f08c379a000000000000000000000000000000000000000000000000000000000815260040161099090613952565b60405180910390fd5b6109a38383611949565b505050565b600f81565b6000600880549050905090565b6109cb6109c5611941565b82611a02565b610a0a576040517f08c379a0000000000000000000000000000000000000000000000000000000008152600401610a0190613ab2565b60405180910390fd5b610a15838383611ae0565b505050565b610a22611941565b73ffffffffffffffffffffffffffffffffffffffff16610a406112d0565b73ffffffffffffffffffffffffffffffffffffffff1614610a96576040517f08c379a0000000000000000000000000000000000000000000000000000000008152600401610a8d90613a12565b60405180910390fd5b6000610aa06109ad565b905060005b6064811015610ad657610ac3338284610abe9190613be1565b611d3c565b8080610ace90613dde565b915050610aa5565b5050565b6000610ae58361118a565b8210610b26576040517f08c379a0000000000000000000000000000000000000000000000000000000008152600401610b1d90613832565b60405180910390fd5b600660008473ffffffffffffffffffffffffffffffffffffffff1673ffffffffffffffffffffffffffffffffffffffff168152602001908152602001600020600083815260200190815260200160002054905092915050565b610b87611941565b73ffffffffffffffffffffffffffffffffffffffff16610ba56112d0565b73ffffffffffffffffffffffffffffffffffffffff1614610bfb576040517f08c379a0000000000000000000000000000000000000000000000000000000008152600401610bf290613a12565b60405180910390fd5b600e60009054906101000a900460ff1615600e60006101000a81548160ff021916908315150217905550565b610c2f611941565b73ffffffffffffffffffffffffffffffffffffffff16610c4d6112d0565b73ffffffffffffffffffffffffffffffffffffffff1614610ca3576040517f08c379a0000000000000000000000000000000000000000000000000000000008152600401610c9a90613a12565b60405180910390fd5b60004790503373ffffffffffffffffffffffffffffffffffffffff166108fc829081150290604051600060405180830381858888f19350505050158015610cee573d6000803e3d6000fd5b5050565b610d0d83838360405180602001604052806000815250611517565b505050565b610d1a611941565b73ffffffffffffffffffffffffffffffffffffffff16610d386112d0565b73ffffffffffffffffffffffffffffffffffffffff1614610d8e576040517f08c379a0000000000000000000000000000000000000000000000000000000008152600401610d8590613a12565b60405180910390fd5b80600c8190555050565b6000610da26109ad565b8210610de3576040517f08c379a0000000000000000000000000000000000000000000000000000000008152600401610dda90613ad2565b60405180910390fd5b60088281548110610e1d577f4e487b7100000000000000000000000000000000000000000000000000000000600052603260045260246000fd5b90600052602060002001549050919050565b600e60009054906101000a900460ff16610e7e576040517f08c379a0000000000000000000000000000000000000000000000000000000008152600401610e7590613912565b60405180910390fd5b600f811115610ec2576040517f08c379a0000000000000000000000000000000000000000000000000000000008152600401610eb990613a92565b60405180910390fd5b600d5481610ece6109ad565b610ed89190613be1565b1115610f19576040517f08c379a0000000000000000000000000000000000000000000000000000000008152600401610f10906139b2565b60405180910390fd5b3481600c54610f289190613c68565b1115610f69576040517f08c379a0000000000000000000000000000000000000000000000000000000008152600401610f60906138f2565b60405180910390fd5b60005b81811015610fb0576000610f7e6109ad565b9050600d54610f8b6109ad565b1015610f9c57610f9b3382611d3c565b5b508080610fa890613dde565b915050610f6c565b5050565b610fbc611941565b73ffffffffffffffffffffffffffffffffffffffff16610fda6112d0565b73ffffffffffffffffffffffffffffffffffffffff1614611030576040517f08c379a000000000000000000000000000000000000000000000000000000000815260040161102790613a12565b60405180910390fd5b80600f9080519060200190611046929190612a7b565b5050565b6000806002600084815260200190815260200160002060009054906101000a900473ffffffffffffffffffffffffffffffffffffffff169050600073ffffffffffffffffffffffffffffffffffffffff168173ffffffffffffffffffffffffffffffffffffffff1614156110f3576040517f08c379a00000000000000000000000000000000000000000000000000000000081526004016110ea90613992565b60405180910390fd5b80915050919050565b600b805461110990613dac565b80601f016020809104026020016040519081016040528092919081815260200182805461113590613dac565b80156111825780601f1061115757610100808354040283529160200191611182565b820191906000526020600020905b81548152906001019060200180831161116557829003601f168201915b505050505081565b60008073ffffffffffffffffffffffffffffffffffffffff168273ffffffffffffffffffffffffffffffffffffffff1614156111fb576040517f08c379a00000000000000000000000000000000000000000000000000000000081526004016111f290613972565b60405180910390fd5b600360008373ffffffffffffffffffffffffffffffffffffffff1673ffffffffffffffffffffffffffffffffffffffff168152602001908152602001600020549050919050565b61124a611941565b73ffffffffffffffffffffffffffffffffffffffff166112686112d0565b73ffffffffffffffffffffffffffffffffffffffff16146112be576040517f08c379a00000000000000000000000000000000000000000000000000000000081526004016112b590613a12565b60405180910390fd5b6112c86000611d5a565b565b600c5481565b6000600a60009054906101000a900473ffffffffffffffffffffffffffffffffffffffff16905090565b6000600c54905090565b60606001805461131390613dac565b80601f016020809104026020016040519081016040528092919081815260200182805461133f90613dac565b801561138c5780601f106113615761010080835404028352916020019161138c565b820191906000526020600020905b81548152906001019060200180831161136f57829003601f168201915b5050505050905090565b61139e611941565b73ffffffffffffffffffffffffffffffffffffffff168273ffffffffffffffffffffffffffffffffffffffff16141561140c576040517f08c379a0000000000000000000000000000000000000000000000000000000008152600401611403906138d2565b60405180910390fd5b8060056000611419611941565b73ffffffffffffffffffffffffffffffffffffffff1673ffffffffffffffffffffffffffffffffffffffff16815260200190815260200160002060008473ffffffffffffffffffffffffffffffffffffffff1673ffffffffffffffffffffffffffffffffffffffff16815260200190815260200160002060006101000a81548160ff0219169083151502179055508173ffffffffffffffffffffffffffffffffffffffff166114c6611941565b73ffffffffffffffffffffffffffffffffffffffff167f17307eab39ab6107e8899845ad3d59bd9653f200f220920489ca2b5937696c318360405161150b91906137f5565b60405180910390a35050565b611528611522611941565b83611a02565b611567576040517f08c379a000000000000000000000000000000000000000000000000000000000815260040161155e90613ab2565b60405180910390fd5b61157384848484611e20565b50505050565b6060611584826118d5565b6115c3576040517f08c379a00000000000000000000000000000000000000000000000000000000081526004016115ba90613a52565b60405180910390fd5b60006115cd611e7c565b905060008151116115ed5760405180602001604052806000815250611618565b806115f784611f0e565b60405160200161160892919061376a565b6040516020818303038152906040525b915050919050565b6000600560008473ffffffffffffffffffffffffffffffffffffffff1673ffffffffffffffffffffffffffffffffffffffff16815260200190815260200160002060008373ffffffffffffffffffffffffffffffffffffffff1673ffffffffffffffffffffffffffffffffffffffff16815260200190815260200160002060009054906101000a900460ff16905092915050565b600e60009054906101000a900460ff1681565b6116cf611941565b73ffffffffffffffffffffffffffffffffffffffff166116ed6112d0565b73ffffffffffffffffffffffffffffffffffffffff1614611743576040517f08c379a000000000000000000000000000000000000000000000000000000000815260040161173a90613a12565b60405180910390fd5b600073ffffffffffffffffffffffffffffffffffffffff168173ffffffffffffffffffffffffffffffffffffffff1614156117b3576040517f08c379a00000000000000000000000000000000000000000000000000000000081526004016117aa90613872565b60405180910390fd5b6117bc81611d5a565b50565b600d5481565b6117cd611941565b73ffffffffffffffffffffffffffffffffffffffff166117eb6112d0565b73ffffffffffffffffffffffffffffffffffffffff1614611841576040517f08c379a000000000000000000000000000000000000000000000000000000000815260040161183890613a12565b60405180910390fd5b80600b9080519060200190611857929190612a7b565b5050565b60007f780e9d63000000000000000000000000000000000000000000000000000000007bffffffffffffffffffffffffffffffffffffffffffffffffffffffff1916827bffffffffffffffffffffffffffffffffffffffffffffffffffffffff191614806118ce57506118cd826120bb565b5b9050919050565b60008073ffffffffffffffffffffffffffffffffffffffff166002600084815260200190815260200160002060009054906101000a900473ffffffffffffffffffffffffffffffffffffffff1673ffffffffffffffffffffffffffffffffffffffff1614159050919050565b600033905090565b816004600083815260200190815260200160002060006101000a81548173ffffffffffffffffffffffffffffffffffffffff021916908373ffffffffffffffffffffffffffffffffffffffff160217905550808273ffffffffffffffffffffffffffffffffffffffff166119bc8361104a565b73ffffffffffffffffffffffffffffffffffffffff167f8c5be1e5ebec7d5bd14f71427d1e84f3dd0314c0f7b2291e5b200ac8c7c3b92560405160405180910390a45050565b6000611a0d826118d5565b611a4c576040517f08c379a0000000000000000000000000000000000000000000000000000000008152600401611a4390613932565b60405180910390fd5b6000611a578361104a565b90508073ffffffffffffffffffffffffffffffffffffffff168473ffffffffffffffffffffffffffffffffffffffff161480611ac657508373ffffffffffffffffffffffffffffffffffffffff16611aae8461080b565b73ffffffffffffffffffffffffffffffffffffffff16145b80611ad75750611ad68185611620565b5b91505092915050565b8273ffffffffffffffffffffffffffffffffffffffff16611b008261104a565b73ffffffffffffffffffffffffffffffffffffffff1614611b56576040517f08c379a0000000000000000000000000000000000000000000000000000000008152600401611b4d90613a32565b60405180910390fd5b600073ffffffffffffffffffffffffffffffffffffffff168273ffffffffffffffffffffffffffffffffffffffff161415611bc6576040517f08c379a0000000000000000000000000000000000000000000000000000000008152600401611bbd906138b2565b60405180910390fd5b611bd183838361219d565b611bdc600082611949565b6001600360008573ffffffffffffffffffffffffffffffffffffffff1673ffffffffffffffffffffffffffffffffffffffff1681526020019081526020016000206000828254611c2c9190613cc2565b925050819055506001600360008473ffffffffffffffffffffffffffffffffffffffff1673ffffffffffffffffffffffffffffffffffffffff1681526020019081526020016000206000828254611c839190613be1565b92505081905550816002600083815260200190815260200160002060006101000a81548173ffffffffffffffffffffffffffffffffffffffff021916908373ffffffffffffffffffffffffffffffffffffffff160217905550808273ffffffffffffffffffffffffffffffffffffffff168473ffffffffffffffffffffffffffffffffffffffff167fddf252ad1be2c89b69c2b068fc378daa952ba7f163c4a11628f55a4df523b3ef60405160405180910390a4505050565b611d568282604051806020016040528060008152506121ad565b5050565b6000600a60009054906101000a900473ffffffffffffffffffffffffffffffffffffffff16905081600a60006101000a81548173ffffffffffffffffffffffffffffffffffffffff021916908373ffffffffffffffffffffffffffffffffffffffff1602179055508173ffffffffffffffffffffffffffffffffffffffff168173ffffffffffffffffffffffffffffffffffffffff167f8be0079c531659141344cd1fd0a4f28419497f9722a3daafe3b4186f6b6457e060405160405180910390a35050565b611e2b848484611ae0565b611e3784848484612208565b611e76576040517f08c379a0000000000000000000000000000000000000000000000000000000008152600401611e6d90613852565b60405180910390fd5b50505050565b6060600f8054611e8b90613dac565b80601f0160208091040260200160405190810160405280929190818152602001828054611eb790613dac565b8015611f045780601f10611ed957610100808354040283529160200191611f04565b820191906000526020600020905b815481529060010190602001808311611ee757829003601f168201915b5050505050905090565b60606000821415611f56576040518060400160405280600181526020017f300000000000000000000000000000000000000000000000000000000000000081525090506120b6565b600082905060005b60008214611f88578080611f7190613dde565b915050600a82611f819190613c37565b9150611f5e565b60008167ffffffffffffffff811115611fca577f4e487b7100000000000000000000000000000000000000000000000000000000600052604160045260246000fd5b6040519080825280601f01601f191660200182016040528015611ffc5781602001600182028036833780820191505090505b5090505b600085146120af576001826120159190613cc2565b9150600a856120249190613e27565b60306120309190613be1565b60f81b81838151811061206c577f4e487b7100000000000000000000000000000000000000000000000000000000600052603260045260246000fd5b60200101907effffffffffffffffffffffffffffffffffffffffffffffffffffffffffffff1916908160001a905350600a856120a89190613c37565b9450612000565b8093505050505b919050565b60007f80ac58cd000000000000000000000000000000000000000000000000000000007bffffffffffffffffffffffffffffffffffffffffffffffffffffffff1916827bffffffffffffffffffffffffffffffffffffffffffffffffffffffff1916148061218657507f5b5e139f000000000000000000000000000000000000000000000000000000007bffffffffffffffffffffffffffffffffffffffffffffffffffffffff1916827bffffffffffffffffffffffffffffffffffffffffffffffffffffffff1916145b8061219657506121958261239f565b5b9050919050565b6121a8838383612409565b505050565b6121b7838361251d565b6121c46000848484612208565b612203576040517f08c379a00000000000000000000000000000000000000000000000000000000081526004016121fa90613852565b60405180910390fd5b505050565b60006122298473ffffffffffffffffffffffffffffffffffffffff166126eb565b15612392578373ffffffffffffffffffffffffffffffffffffffff1663150b7a02612252611941565b8786866040518563ffffffff1660e01b815260040161227494939291906137a9565b602060405180830381600087803b15801561228e57600080fd5b505af19250505080156122bf57506040513d601f19601f820116820180604052508101906122bc9190612e27565b60015b612342573d80600081146122ef576040519150601f19603f3d011682016040523d82523d6000602084013e6122f4565b606091505b5060008151141561233a576040517f08c379a000000000000000000000000000000000000000000000000000000000815260040161233190613852565b60405180910390fd5b805181602001fd5b63150b7a0260e01b7bffffffffffffffffffffffffffffffffffffffffffffffffffffffff1916817bffffffffffffffffffffffffffffffffffffffffffffffffffffffff191614915050612397565b600190505b949350505050565b60007f01ffc9a7000000000000000000000000000000000000000000000000000000007bffffffffffffffffffffffffffffffffffffffffffffffffffffffff1916827bffffffffffffffffffffffffffffffffffffffffffffffffffffffff1916149050919050565b6124148383836126fe565b600073ffffffffffffffffffffffffffffffffffffffff168373ffffffffffffffffffffffffffffffffffffffff1614156124575761245281612703565b612496565b8173ffffffffffffffffffffffffffffffffffffffff168373ffffffffffffffffffffffffffffffffffffffff161461249557612494838261274c565b5b5b600073ffffffffffffffffffffffffffffffffffffffff168273ffffffffffffffffffffffffffffffffffffffff1614156124d9576124d4816128b9565b612518565b8273ffffffffffffffffffffffffffffffffffffffff168273ffffffffffffffffffffffffffffffffffffffff16146125175761251682826129fc565b5b5b505050565b600073ffffffffffffffffffffffffffffffffffffffff168273ffffffffffffffffffffffffffffffffffffffff16141561258d576040517f08c379a0000000000000000000000000000000000000000000000000000000008152600401612584906139d2565b60405180910390fd5b612596816118d5565b156125d6576040517f08c379a00000000000000000000000000000000000000000000000000000000081526004016125cd90613892565b60405180910390fd5b6125e26000838361219d565b6001600360008473ffffffffffffffffffffffffffffffffffffffff1673ffffffffffffffffffffffffffffffffffffffff16815260200190815260200160002060008282546126329190613be1565b92505081905550816002600083815260200190815260200160002060006101000a81548173ffffffffffffffffffffffffffffffffffffffff021916908373ffffffffffffffffffffffffffffffffffffffff160217905550808273ffffffffffffffffffffffffffffffffffffffff16600073ffffffffffffffffffffffffffffffffffffffff167fddf252ad1be2c89b69c2b068fc378daa952ba7f163c4a11628f55a4df523b3ef60405160405180910390a45050565b600080823b905060008111915050919050565b505050565b6008805490506009600083815260200190815260200160002081905550600881908060018154018082558091505060019003906000526020600020016000909190919091505550565b600060016127598461118a565b6127639190613cc2565b9050600060076000848152602001908152602001600020549050818114612848576000600660008673ffffffffffffffffffffffffffffffffffffffff1673ffffffffffffffffffffffffffffffffffffffff168152602001908152602001600020600084815260200190815260200160002054905080600660008773ffffffffffffffffffffffffffffffffffffffff1673ffffffffffffffffffffffffffffffffffffffff168152602001908152602001600020600084815260200190815260200160002081905550816007600083815260200190815260200160002081905550505b6007600084815260200190815260200160002060009055600660008573ffffffffffffffffffffffffffffffffffffffff1673ffffffffffffffffffffffffffffffffffffffff16815260200190815260200160002060008381526020019081526020016000206000905550505050565b600060016008805490506128cd9190613cc2565b9050600060096000848152602001908152602001600020549050600060088381548110612923577f4e487b7100000000000000000000000000000000000000000000000000000000600052603260045260246000fd5b90600052602060002001549050806008838154811061296b577f4e487b7100000000000000000000000000000000000000000000000000000000600052603260045260246000fd5b9060005260206000200181905550816009600083815260200190815260200160002081905550600960008581526020019081526020016000206000905560088054806129e0577f4e487b7100000000000000000000000000000000000000000000000000000000600052603160045260246000fd5b6001900381819060005260206000200160009055905550505050565b6000612a078361118a565b905081600660008573ffffffffffffffffffffffffffffffffffffffff1673ffffffffffffffffffffffffffffffffffffffff168152602001908152602001600020600083815260200190815260200160002081905550806007600084815260200190815260200160002081905550505050565b828054612a8790613dac565b90600052602060002090601f016020900481019282612aa95760008555612af0565b82601f10612ac257805160ff1916838001178555612af0565b82800160010185558215612af0579182015b82811115612aef578251825591602001919060010190612ad4565b5b509050612afd9190612b01565b5090565b5b80821115612b1a576000816000905550600101612b02565b5090565b6000612b31612b2c84613b3e565b613b0d565b905082815260208101848484011115612b4957600080fd5b612b54848285613d6a565b509392505050565b6000612b6f612b6a84613b6e565b613b0d565b905082815260208101848484011115612b8757600080fd5b612b92848285613d6a565b509392505050565b600081359050612ba981613f25565b92915050565b600081359050612bbe81613f3c565b92915050565b600081359050612bd381613f53565b92915050565b600081519050612be881613f53565b92915050565b600082601f830112612bff57600080fd5b8135612c0f848260208601612b1e565b91505092915050565b600082601f830112612c2957600080fd5b8135612c39848260208601612b5c565b91505092915050565b600081359050612c5181613f6a565b92915050565b600060208284031215612c6957600080fd5b6000612c7784828501612b9a565b91505092915050565b60008060408385031215612c9357600080fd5b6000612ca185828601612b9a565b9250506020612cb285828601612b9a565b9150509250929050565b600080600060608486031215612cd157600080fd5b6000612cdf86828701612b9a565b9350506020612cf086828701612b9a565b9250506040612d0186828701612c42565b9150509250925092565b60008060008060808587031215612d2157600080fd5b6000612d2f87828801612b9a565b9450506020612d4087828801612b9a565b9350506040612d5187828801612c42565b925050606085013567ffffffffffffffff811115612d6e57600080fd5b612d7a87828801612bee565b91505092959194509250565b60008060408385031215612d9957600080fd5b6000612da785828601612b9a565b9250506020612db885828601612baf565b9150509250929050565b60008060408385031215612dd557600080fd5b6000612de385828601612b9a565b9250506020612df485828601612c42565b9150509250929050565b600060208284031215612e1057600080fd5b6000612e1e84828501612bc4565b91505092915050565b600060208284031215612e3957600080fd5b6000612e4784828501612bd9565b91505092915050565b600060208284031215612e6257600080fd5b600082013567ffffffffffffffff811115612e7c57600080fd5b612e8884828501612c18565b91505092915050565b600060208284031215612ea357600080fd5b6000612eb184828501612c42565b91505092915050565b612ec381613cf6565b82525050565b612ed281613d08565b82525050565b6000612ee382613b9e565b612eed8185613bb4565b9350612efd818560208601613d79565b612f0681613f14565b840191505092915050565b6000612f1c82613ba9565b612f268185613bc5565b9350612f36818560208601613d79565b612f3f81613f14565b840191505092915050565b6000612f5582613ba9565b612f5f8185613bd6565b9350612f6f818560208601613d79565b80840191505092915050565b6000612f88602b83613bc5565b91507f455243373231456e756d657261626c653a206f776e657220696e646578206f7560008301527f74206f6620626f756e64730000000000000000000000000000000000000000006020830152604082019050919050565b6000612fee603283613bc5565b91507f4552433732313a207472616e7366657220746f206e6f6e20455243373231526560008301527f63656976657220696d706c656d656e74657200000000000000000000000000006020830152604082019050919050565b6000613054602683613bc5565b91507f4f776e61626c653a206e6577206f776e657220697320746865207a65726f206160008301527f64647265737300000000000000000000000000000000000000000000000000006020830152604082019050919050565b60006130ba601c83613bc5565b91507f4552433732313a20746f6b656e20616c7265616479206d696e746564000000006000830152602082019050919050565b60006130fa602483613bc5565b91507f4552433732313a207472616e7366657220746f20746865207a65726f2061646460008301527f72657373000000000000000000000000000000000000000000000000000000006020830152604082019050919050565b6000613160601983613bc5565b91507f4552433732313a20617070726f766520746f2063616c6c6572000000000000006000830152602082019050919050565b60006131a0601f83613bc5565b91507f45746865722076616c75652073656e74206973206e6f7420636f7272656374006000830152602082019050919050565b60006131e0602283613bc5565b91507f53616c65206d7573742062652061637469766520746f206d696e7420546f6b6560008301527f6e730000000000000000000000000000000000000000000000000000000000006020830152604082019050919050565b6000613246602c83613bc5565b91507f4552433732313a206f70657261746f7220717565727920666f72206e6f6e657860008301527f697374656e7420746f6b656e00000000000000000000000000000000000000006020830152604082019050919050565b60006132ac603883613bc5565b91507f4552433732313a20617070726f76652063616c6c6572206973206e6f74206f7760008301527f6e6572206e6f7220617070726f76656420666f7220616c6c00000000000000006020830152604082019050919050565b6000613312602a83613bc5565b91507f4552433732313a2062616c616e636520717565727920666f7220746865207a6560008301527f726f2061646472657373000000000000000000000000000000000000000000006020830152604082019050919050565b6000613378602983613bc5565b91507f4552433732313a206f776e657220717565727920666f72206e6f6e657869737460008301527f656e7420746f6b656e00000000000000000000000000000000000000000000006020830152604082019050919050565b60006133de602a83613bc5565b91507f507572636861736520776f756c6420657863656564206d617820737570706c7960008301527f206f6620746f6b656e73000000000000000000000000000000000000000000006020830152604082019050919050565b6000613444602083613bc5565b91507f4552433732313a206d696e7420746f20746865207a65726f20616464726573736000830152602082019050919050565b6000613484602c83613bc5565b91507f4552433732313a20617070726f76656420717565727920666f72206e6f6e657860008301527f697374656e7420746f6b656e00000000000000000000000000000000000000006020830152604082019050919050565b60006134ea602083613bc5565b91507f4f776e61626c653a2063616c6c6572206973206e6f7420746865206f776e65726000830152602082019050919050565b600061352a602983613bc5565b91507f4552433732313a207472616e73666572206f6620746f6b656e2074686174206960008301527f73206e6f74206f776e00000000000000000000000000000000000000000000006020830152604082019050919050565b6000613590602f83613bc5565b91507f4552433732314d657461646174613a2055524920717565727920666f72206e6f60008301527f6e6578697374656e7420746f6b656e00000000000000000000000000000000006020830152604082019050919050565b60006135f6602183613bc5565b91507f4552433732313a20617070726f76616c20746f2063757272656e74206f776e6560008301527f72000000000000000000000000000000000000000000000000000000000000006020830152604082019050919050565b600061365c601b83613bc5565b91507f4578636565646564206d617820746f6b656e20707572636861736500000000006000830152602082019050919050565b600061369c603183613bc5565b91507f4552433732313a207472616e736665722063616c6c6572206973206e6f74206f60008301527f776e6572206e6f7220617070726f7665640000000000000000000000000000006020830152604082019050919050565b6000613702602c83613bc5565b91507f455243373231456e756d657261626c653a20676c6f62616c20696e646578206f60008301527f7574206f6620626f756e647300000000000000000000000000000000000000006020830152604082019050919050565b61376481613d60565b82525050565b60006137768285612f4a565b91506137828284612f4a565b91508190509392505050565b60006020820190506137a36000830184612eba565b92915050565b60006080820190506137be6000830187612eba565b6137cb6020830186612eba565b6137d8604083018561375b565b81810360608301526137ea8184612ed8565b905095945050505050565b600060208201905061380a6000830184612ec9565b92915050565b6000602082019050818103600083015261382a8184612f11565b905092915050565b6000602082019050818103600083015261384b81612f7b565b9050919050565b6000602082019050818103600083015261386b81612fe1565b9050919050565b6000602082019050818103600083015261388b81613047565b9050919050565b600060208201905081810360008301526138ab816130ad565b9050919050565b600060208201905081810360008301526138cb816130ed565b9050919050565b600060208201905081810360008301526138eb81613153565b9050919050565b6000602082019050818103600083015261390b81613193565b9050919050565b6000602082019050818103600083015261392b816131d3565b9050919050565b6000602082019050818103600083015261394b81613239565b9050919050565b6000602082019050818103600083015261396b8161329f565b9050919050565b6000602082019050818103600083015261398b81613305565b9050919050565b600060208201905081810360008301526139ab8161336b565b9050919050565b600060208201905081810360008301526139cb816133d1565b9050919050565b600060208201905081810360008301526139eb81613437565b9050919050565b60006020820190508181036000830152613a0b81613477565b9050919050565b60006020820190508181036000830152613a2b816134dd565b9050919050565b60006020820190508181036000830152613a4b8161351d565b9050919050565b60006020820190508181036000830152613a6b81613583565b9050919050565b60006020820190508181036000830152613a8b816135e9565b9050919050565b60006020820190508181036000830152613aab8161364f565b9050919050565b60006020820190508181036000830152613acb8161368f565b9050919050565b60006020820190508181036000830152613aeb816136f5565b9050919050565b6000602082019050613b07600083018461375b565b92915050565b6000604051905081810181811067ffffffffffffffff82111715613b3457613b33613ee5565b5b8060405250919050565b600067ffffffffffffffff821115613b5957613b58613ee5565b5b601f19601f8301169050602081019050919050565b600067ffffffffffffffff821115613b8957613b88613ee5565b5b601f19601f8301169050602081019050919050565b600081519050919050565b600081519050919050565b600082825260208201905092915050565b600082825260208201905092915050565b600081905092915050565b6000613bec82613d60565b9150613bf783613d60565b9250827fffffffffffffffffffffffffffffffffffffffffffffffffffffffffffffffff03821115613c2c57613c2b613e58565b5b828201905092915050565b6000613c4282613d60565b9150613c4d83613d60565b925082613c5d57613c5c613e87565b5b828204905092915050565b6000613c7382613d60565b9150613c7e83613d60565b9250817fffffffffffffffffffffffffffffffffffffffffffffffffffffffffffffffff0483118215151615613cb757613cb6613e58565b5b828202905092915050565b6000613ccd82613d60565b9150613cd883613d60565b925082821015613ceb57613cea613e58565b5b828203905092915050565b6000613d0182613d40565b9050919050565b60008115159050919050565b60007fffffffff0000000000000000000000000000000000000000000000000000000082169050919050565b600073ffffffffffffffffffffffffffffffffffffffff82169050919050565b6000819050919050565b82818337600083830152505050565b60005b83811015613d97578082015181840152602081019050613d7c565b83811115613da6576000848401525b50505050565b60006002820490506001821680613dc457607f821691505b60208210811415613dd857613dd7613eb6565b5b50919050565b6000613de982613d60565b91507fffffffffffffffffffffffffffffffffffffffffffffffffffffffffffffffff821415613e1c57613e1b613e58565b5b600182019050919050565b6000613e3282613d60565b9150613e3d83613d60565b925082613e4d57613e4c613e87565b5b828206905092915050565b7f4e487b7100000000000000000000000000000000000000000000000000000000600052601160045260246000fd5b7f4e487b7100000000000000000000000000000000000000000000000000000000600052601260045260246000fd5b7f4e487b7100000000000000000000000000000000000000000000000000000000600052602260045260246000fd5b7f4e487b7100000000000000000000000000000000000000000000000000000000600052604160045260246000fd5b6000601f19601f8301169050919050565b613f2e81613cf6565b8114613f3957600080fd5b50565b613f4581613d08565b8114613f5057600080fd5b50565b613f5c81613d14565b8114613f6757600080fd5b50565b613f7381613d60565b8114613f7e57600080fd5b5056fea2646970667358221220ccb75ef051e97a98fcf6fd0fc5fd9e2b3425dd29de8cfabc2d94094a4f955f4964736f6c63430008000033",
  "immutableReferences": {},
  "source": "// SPDX-License-Identifier: MIT\n\npragma solidity ^0.8.0;\n\nimport \"@openzeppelin/contracts/token/ERC721/ERC721.sol\";\nimport \"@openzeppelin/contracts/access/Ownable.sol\";\nimport \"@openzeppelin/contracts/token/ERC721/extensions/ERC721Enumerable.sol\";\n\n/**\n * @title Retrography contract\n * @dev Extends ERC721 Non-Fungible Token Standard basic implementation\n */\ncontract Retrography is ERC721, ERC721Enumerable, Ownable {\n\n    string public PROVENANCE = \"\";\n    uint256 public tokenPrice = 70000000000000000; // 0.07 ETH\n    uint public constant maxTokenPurchase = 15;\n    uint256 public MAX_TOKENS = 10000;\n    bool public saleIsActive = false;\n\n    string private _baseURIextended;\n\n    constructor() ERC721(\"Retrography\", \"RETRO\") {\n    }\n\n    // CHANGED: needed to resolve conflicting fns in ERC721 and ERC721Enumerable\n    function _beforeTokenTransfer(address from, address to, uint256 tokenId) internal override(ERC721, ERC721Enumerable) {\n        super._beforeTokenTransfer(from, to, tokenId);\n    }\n\n    // CHANGED: needed to resolve conflicting fns in ERC721 and ERC721Enumerable\n    function supportsInterface(bytes4 interfaceId) public view virtual override(ERC721, ERC721Enumerable) returns (bool) {\n        return super.supportsInterface(interfaceId);\n    }\n\n    // CHANGED: added to account for changes in openzeppelin versions\n    function setBaseURI(string memory baseURI_) external onlyOwner() {\n        _baseURIextended = baseURI_;\n    }\n\n    // CHANGED: added to account for changes in openzeppelin versions\n    function _baseURI() internal view virtual override returns (string memory) {\n        return _baseURIextended;\n    }\n\n    function setProvenance(string memory provenance) public onlyOwner {\n        PROVENANCE = provenance;\n    }\n\n    function reserveTokens() public onlyOwner {        \n        uint supply = totalSupply();\n        uint i;\n        for (i = 0; i < 100; i++) {\n            _safeMint(msg.sender, supply + i);\n        }\n    }\n    \n    function flipSaleState() public onlyOwner {\n        saleIsActive = !saleIsActive;\n    }\n    \n    function settokenPrice(uint _fee) external onlyOwner {\n        tokenPrice = _fee;\n    }\n\n    function gettokenPrice() external view returns (uint){\n        return tokenPrice;\n    }\n\n    function mintRetro(uint numberOfTokens) public payable {\n        require(saleIsActive, \"Sale must be active to mint Tokens\");\n        require(numberOfTokens <= maxTokenPurchase, \"Exceeded max token purchase\");\n        // CHANGED: mult and add to + and *\n        require(totalSupply() + numberOfTokens <= MAX_TOKENS, \"Purchase would exceed max supply of tokens\");\n        // CHANGED: mult and add to + and *\n        require(tokenPrice * numberOfTokens <= msg.value, \"Ether value sent is not correct\");\n        \n        for(uint i = 0; i < numberOfTokens; i++) {\n            uint mintIndex = totalSupply();\n            if (totalSupply() < MAX_TOKENS) {\n                _safeMint(msg.sender, mintIndex);\n            }\n        }\n    }\n\n    function withdraw() public onlyOwner {\n        uint balance = address(this).balance;\n        payable(msg.sender).transfer(balance);\n    }\n\n}",
  "sourcePath": "/Users/imaadkhan/NEWNFT/contracts/Retrography.sol",
  "compiler": {
    "name": "solc",
    "version": "0.8.0+commit.c7dfd78e.Emscripten.clang"
  },
  "schemaVersion": "3.4.3",
  "updatedAt": "2021-09-14T12:24:50.113Z",
  "devdoc": {
    "details": "Extends ERC721 Non-Fungible Token Standard basic implementation",
    "kind": "dev",
    "methods": {
      "approve(address,uint256)": {
        "details": "See {IERC721-approve}."
      },
      "balanceOf(address)": {
        "details": "See {IERC721-balanceOf}."
      },
      "getApproved(uint256)": {
        "details": "See {IERC721-getApproved}."
      },
      "isApprovedForAll(address,address)": {
        "details": "See {IERC721-isApprovedForAll}."
      },
      "name()": {
        "details": "See {IERC721Metadata-name}."
      },
      "owner()": {
        "details": "Returns the address of the current owner."
      },
      "ownerOf(uint256)": {
        "details": "See {IERC721-ownerOf}."
      },
      "renounceOwnership()": {
        "details": "Leaves the contract without owner. It will not be possible to call `onlyOwner` functions anymore. Can only be called by the current owner. NOTE: Renouncing ownership will leave the contract without an owner, thereby removing any functionality that is only available to the owner."
      },
      "safeTransferFrom(address,address,uint256)": {
        "details": "See {IERC721-safeTransferFrom}."
      },
      "safeTransferFrom(address,address,uint256,bytes)": {
        "details": "See {IERC721-safeTransferFrom}."
      },
      "setApprovalForAll(address,bool)": {
        "details": "See {IERC721-setApprovalForAll}."
      },
      "symbol()": {
        "details": "See {IERC721Metadata-symbol}."
      },
      "tokenByIndex(uint256)": {
        "details": "See {IERC721Enumerable-tokenByIndex}."
      },
      "tokenOfOwnerByIndex(address,uint256)": {
        "details": "See {IERC721Enumerable-tokenOfOwnerByIndex}."
      },
      "tokenURI(uint256)": {
        "details": "See {IERC721Metadata-tokenURI}."
      },
      "totalSupply()": {
        "details": "See {IERC721Enumerable-totalSupply}."
      },
      "transferFrom(address,address,uint256)": {
        "details": "See {IERC721-transferFrom}."
      },
      "transferOwnership(address)": {
        "details": "Transfers ownership of the contract to a new account (`newOwner`). Can only be called by the current owner."
      }
    },
    "title": "Retrography contract",
    "version": 1
  },
  "userdoc": {
    "kind": "user",
    "methods": {},
    "version": 1
  }
}